{
  "contractName": "NTTBuyer",
  "abi": [
    {
      "inputs": [],
      "payable": false,
      "stateMutability": "nonpayable",
      "type": "constructor"
    },
    {
      "payable": true,
      "stateMutability": "payable",
      "type": "fallback"
    },
    {
      "constant": false,
      "inputs": [
        {
          "name": "from",
          "type": "address"
        },
        {
          "name": "tokens",
          "type": "uint256"
        },
        {
          "name": "token",
          "type": "address"
        },
        {
          "name": "data",
          "type": "bytes"
        }
      ],
      "name": "receiveApproval",
      "outputs": [
        {
          "name": "success",
          "type": "bool"
        }
      ],
      "payable": false,
      "stateMutability": "nonpayable",
      "type": "function"
    }
  ],
  "bytecode": "0x608060405234801561001057600080fd5b506101fb806100206000396000f3fe608060405260043610610041576000357c0100000000000000000000000000000000000000000000000000000000900463ffffffff1680638f4ffcb114610046575b600080fd5b34801561005257600080fd5b506101566004803603608081101561006957600080fd5b81019080803573ffffffffffffffffffffffffffffffffffffffff16906020019092919080359060200190929190803573ffffffffffffffffffffffffffffffffffffffff169060200190929190803590602001906401000000008111156100d057600080fd5b8201836020820111156100e257600080fd5b8035906020019184600183028401116401000000008311171561010457600080fd5b91908080601f016020809104026020016040519081016040528093929190818152602001838380828437600081840152601f19601f820116905080830192505050505050509192919290505050610170565b604051808215151515815260200191505060405180910390f35b6000806000806020850151925060408501519150606085015190506000836001900490506000836001900490506101a782826101c3565b15156101b257600080fd5b600195505050505050949350505050565b6000600190509291505056fea165627a7a7230582049f3a3d3eed12ea822d4d0a4ddcb22c5618226cae0a73552eee305e07877a1460029",
  "source": "pragma solidity ^0.5.0;\n\n\n\n/**------------------------------------\n\nPurchase ERC721 Middleman\n\nThis is a Lava Middleman contract that can purchase an ERC721 token from a market\n\n------------------------------------*/\n\n\n/*\ncontract ERC20Interface {\n    function totalSupply() public view returns (uint);\n    function balanceOf(address tokenOwner) public view returns (uint balance);\n    function allowance(address tokenOwner, address spender) public view returns (uint remaining);\n    function transfer(address to, uint tokens) public returns (bool success);\n    function approve(address spender, uint tokens) public returns (bool success);\n    function transferFrom(address from, address to, uint tokens) public returns (bool success);\n\n    event Transfer(address indexed from, address indexed to, uint tokens);\n    event Approval(address indexed tokenOwner, address indexed spender, uint tokens);\n}\n*/\n\ncontract ERC721Interface {\n\n  function balanceOf(address _owner) external view returns (uint256);\n  function ownerOf(uint256 _tokenId) external view returns (address);\n\n  function transferFrom(address _from, address _to, uint256 _tokenId) external payable;\n  function approve(address _approved, uint256 _tokenId) external payable;\n  function setApprovalForAll(address _operator, bool _approved) external;\n  function getApproved(uint256 _tokenId) external view returns (address);\n  function isApprovedForAll(address _owner, address _operator) external view returns (bool);\n\n  event Transfer(address indexed _from, address indexed _to, uint256 indexed _tokenId);\n  event Approval(address indexed _owner, address indexed _approved, uint256 indexed _tokenId);\n  event ApprovalForAll(address indexed _owner, address indexed _operator, bool _approved);\n\n}\n\ncontract NametagInterface {\n    function claimToken( address to,  string memory name  ) public  returns (bool);\n    function reserveToken( address to, uint256 tokenId ) public  returns (bool);\n}\n\n\ncontract ApproveAndCallFallBack {\n    function receiveApproval(address from, uint256 tokens, address token, bytes memory data) public;\n}\n\n\ncontract NTTBuyer{\n\n\n\n    constructor( ) public {\n\n    }\n\n    /**\n    * Do not allow ETH to enter\n    */\n     function() external payable\n     {\n         revert();\n     }\n\n\n    function _purchaseERC721Token(address tokenAddress, uint tokenId) internal returns (bool success) {\n\n        /*  uint256 tokenId = (uint256) (keccak256(abi.encodePacked( name )));\n\n          //claim the token for this contract\n          require(NametagInterface(nametagTokenAddress).claimToken(address(this), name ));\n\n          //send the token to the owner\n          ERC721Interface(nametagTokenAddress).transferFrom(address(this), from, tokenId)  ;\n          */\n\n         return true;\n     }\n\n       /*\n         Receive approval from ApproveAndCall() to claim a nametag token.\n\n       */\n     function receiveApproval(address from, uint256 tokens, address token, bytes memory data) public returns (bool success) {\n\n       bytes32 btokenAddress;\n       bytes32 btokenID;\n       bytes32 brecipientAddress;\n\n       // Divide the data into variables\n          assembly {\n            btokenAddress := mload(add(data, 32))\n            btokenID := mload(add(data, 64))\n            brecipientAddress := mload(add(data, 96))\n          }\n\n\n\n        address tokenAddress = address(uint160(uint256(btokenAddress)));\n        uint tokenId = uint(btokenID);\n\n        require(_purchaseERC721Token( tokenAddress, tokenId ));\n\n        return true;\n\n     }\n\n\n\n}\n",
  "sourcePath": "/home/lubuntu/dev/0xlavatoken/contracts/purchaseERC721.sol",
  "compiler": {
    "name": "solc",
    "version": "0.5.0+commit.1d4f565a.Emscripten.clang"
  },
  "schemaVersion": "3.0.2",
  "updatedAt": "2019-05-14T20:23:59.625Z",
  "devdoc": {
    "methods": {}
  },
  "userdoc": {
    "methods": {}
  }
}