{
  "contractName": "NTTClaimMM",
  "abi": [
    {
      "inputs": [
        {
          "name": "nttAddress",
          "type": "address"
        }
      ],
      "payable": false,
      "stateMutability": "nonpayable",
      "type": "constructor"
    },
    {
      "payable": true,
      "stateMutability": "payable",
      "type": "fallback"
    },
    {
      "constant": false,
      "inputs": [
        {
          "name": "from",
          "type": "address"
        },
        {
          "name": "tokens",
          "type": "uint256"
        },
        {
          "name": "token",
          "type": "address"
        },
        {
          "name": "data",
          "type": "bytes"
        }
      ],
      "name": "receiveApproval",
      "outputs": [
        {
          "name": "success",
          "type": "bool"
        }
      ],
      "payable": false,
      "stateMutability": "nonpayable",
      "type": "function"
    }
  ],
  "bytecode": "0x608060405234801561001057600080fd5b5060405160208061055d8339810180604052602081101561003057600080fd5b8101908080519060200190929190505050806000806101000a81548173ffffffffffffffffffffffffffffffffffffffff021916908373ffffffffffffffffffffffffffffffffffffffff160217905550506104cc806100916000396000f3fe608060405260043610610041576000357c0100000000000000000000000000000000000000000000000000000000900463ffffffff1680638f4ffcb114610046575b600080fd5b34801561005257600080fd5b506101566004803603608081101561006957600080fd5b81019080803573ffffffffffffffffffffffffffffffffffffffff16906020019092919080359060200190929190803573ffffffffffffffffffffffffffffffffffffffff169060200190929190803590602001906401000000008111156100d057600080fd5b8201836020820111156100e257600080fd5b8035906020019184600183028401116401000000008311171561010457600080fd5b91908080601f016020809104026020016040519081016040528093929190818152602001838380828437600081840152601f19601f820116905080830192505050505050509192919290505050610170565b604051808215151515815260200191505060405180910390f35b600060608290506101818682610199565b151561018c57600080fd5b6001915050949350505050565b600080826040516020018082805190602001908083835b6020831015156101d557805182526020820191506020810190506020830392506101b0565b6001836020036101000a038019825116818451168082178552505050505050905001915050604051602081830303815290604052805190602001206001900490506000809054906101000a900473ffffffffffffffffffffffffffffffffffffffff1673ffffffffffffffffffffffffffffffffffffffff1663931b338530856040518363ffffffff167c0100000000000000000000000000000000000000000000000000000000028152600401808373ffffffffffffffffffffffffffffffffffffffff1673ffffffffffffffffffffffffffffffffffffffff16815260200180602001828103825283818151815260200191508051906020019080838360005b838110156102f25780820151818401526020810190506102d7565b50505050905090810190601f16801561031f5780820380516001836020036101000a031916815260200191505b509350505050602060405180830381600087803b15801561033f57600080fd5b505af1158015610353573d6000803e3d6000fd5b505050506040513d602081101561036957600080fd5b8101908080519060200190929190505050151561038557600080fd5b6000809054906101000a900473ffffffffffffffffffffffffffffffffffffffff1673ffffffffffffffffffffffffffffffffffffffff166323b872dd3086846040518463ffffffff167c0100000000000000000000000000000000000000000000000000000000028152600401808473ffffffffffffffffffffffffffffffffffffffff1673ffffffffffffffffffffffffffffffffffffffff1681526020018373ffffffffffffffffffffffffffffffffffffffff1673ffffffffffffffffffffffffffffffffffffffff1681526020018281526020019350505050600060405180830381600087803b15801561047d57600080fd5b505af1158015610491573d6000803e3d6000fd5b5050505060019150509291505056fea165627a7a72305820e5175e831691a1ec9fcf05d7347ebb317041c104a04d4f414f6ff23d39256fbe0029",
  "source": "pragma solidity ^0.5.0;\n\n\n\n/**------------------------------------\n\nNTT Claim Middleman\n\nThis is a Lava Middleman contract that claims a new Nametag Token\n\n------------------------------------*/\n\n\n/*\ncontract ERC20Interface {\n    function totalSupply() public view returns (uint);\n    function balanceOf(address tokenOwner) public view returns (uint balance);\n    function allowance(address tokenOwner, address spender) public view returns (uint remaining);\n    function transfer(address to, uint tokens) public returns (bool success);\n    function approve(address spender, uint tokens) public returns (bool success);\n    function transferFrom(address from, address to, uint tokens) public returns (bool success);\n\n    event Transfer(address indexed from, address indexed to, uint tokens);\n    event Approval(address indexed tokenOwner, address indexed spender, uint tokens);\n}\n*/\n\ncontract ERC721Interface {\n\n  function balanceOf(address _owner) external view returns (uint256);\n  function ownerOf(uint256 _tokenId) external view returns (address);\n\n  function transferFrom(address _from, address _to, uint256 _tokenId) external payable;\n  function approve(address _approved, uint256 _tokenId) external payable;\n  function setApprovalForAll(address _operator, bool _approved) external;\n  function getApproved(uint256 _tokenId) external view returns (address);\n  function isApprovedForAll(address _owner, address _operator) external view returns (bool);\n\n  event Transfer(address indexed _from, address indexed _to, uint256 indexed _tokenId);\n  event Approval(address indexed _owner, address indexed _approved, uint256 indexed _tokenId);\n  event ApprovalForAll(address indexed _owner, address indexed _operator, bool _approved);\n\n}\n\ncontract NametagInterface {\n    function claimToken( address to,  string memory name  ) public  returns (bool);\n    function reserveToken( address to, uint256 tokenId ) public  returns (bool);\n}\n\n\ncontract ApproveAndCallFallBack {\n    function receiveApproval(address from, uint256 tokens, address token, bytes memory data) public;\n}\n\n\ncontract NTTClaimMM{\n\n\n  address nametagTokenAddress;\n\n    constructor(address nttAddress ) public {\n      nametagTokenAddress = nttAddress;\n    }\n\n    /**\n    * Do not allow ETH to enter\n    */\n     function() external payable\n     {\n         revert();\n     }\n\n\n    function _claimNametagToken(address from, string memory name) internal returns (bool success) {\n\n          uint256 tokenId = (uint256) (keccak256(abi.encodePacked( name )));\n\n          //claim the token for this contract\n          require(NametagInterface(nametagTokenAddress).claimToken(address(this), name ));\n\n          //send the token to the owner\n          ERC721Interface(nametagTokenAddress).transferFrom(address(this), from, tokenId)  ;\n\n         return true;\n     }\n\n       /*\n         Receive approval from ApproveAndCall() to claim a nametag token.\n\n       */\n     function receiveApproval(address from, uint256 tokens, address token, bytes memory data) public returns (bool success) {\n\n        string memory name = string(data);\n\n        require(_claimNametagToken( from, name ));\n\n        return true;\n\n     }\n\n\n\n}\n",
  "sourcePath": "/home/lubuntu/dev/0xlavatoken/contracts/NTTClaimMM.sol",
  "compiler": {
    "name": "solc",
    "version": "0.5.0+commit.1d4f565a.Emscripten.clang"
  },
  "schemaVersion": "3.0.2",
  "updatedAt": "2019-05-14T20:10:08.946Z",
  "devdoc": {
    "methods": {}
  },
  "userdoc": {
    "methods": {}
  }
}