{
  "contractName": "PurchaseOrderManager",
  "abi": [
    {
      "inputs": [],
      "payable": false,
      "stateMutability": "nonpayable",
      "type": "constructor"
    },
    {
      "payable": true,
      "stateMutability": "payable",
      "type": "fallback"
    },
    {
      "constant": true,
      "inputs": [
        {
          "name": "orderHash",
          "type": "bytes32"
        }
      ],
      "name": "getPurchaseOrderStatus",
      "outputs": [
        {
          "name": "success",
          "type": "bool"
        }
      ],
      "payable": false,
      "stateMutability": "view",
      "type": "function"
    },
    {
      "constant": false,
      "inputs": [
        {
          "name": "from",
          "type": "address"
        },
        {
          "name": "tokens",
          "type": "uint256"
        },
        {
          "name": "token",
          "type": "address"
        },
        {
          "name": "data",
          "type": "bytes"
        }
      ],
      "name": "receiveApproval",
      "outputs": [
        {
          "name": "success",
          "type": "bool"
        }
      ],
      "payable": false,
      "stateMutability": "nonpayable",
      "type": "function"
    }
  ],
  "bytecode": "0x608060405234801561001057600080fd5b5073b6ed7644c69416d67b522e20bc294a9a9b405b316000806101000a81548173ffffffffffffffffffffffffffffffffffffffff021916908373ffffffffffffffffffffffffffffffffffffffff160217905550610584806100746000396000f3fe60806040526004361061004c576000357c0100000000000000000000000000000000000000000000000000000000900463ffffffff1680638f4ffcb1146100515780639b7e88621461017b575b600080fd5b34801561005d57600080fd5b506101616004803603608081101561007457600080fd5b81019080803573ffffffffffffffffffffffffffffffffffffffff16906020019092919080359060200190929190803573ffffffffffffffffffffffffffffffffffffffff169060200190929190803590602001906401000000008111156100db57600080fd5b8201836020820111156100ed57600080fd5b8035906020019184600183028401116401000000008311171561010f57600080fd5b91908080601f016020809104026020016040519081016040528093929190818152602001838380828437600081840152601f19601f8201169050808301925050505050505091929192905050506101ce565b604051808215151515815260200191505060405180910390f35b34801561018757600080fd5b506101b46004803603602081101561019e57600080fd5b8101908080359060200190929190505050610282565b604051808215151515815260200191505060405180910390f35b60008060009054906101000a900473ffffffffffffffffffffffffffffffffffffffff1673ffffffffffffffffffffffffffffffffffffffff168373ffffffffffffffffffffffffffffffffffffffff1614151561022b57600080fd5b6000806000602085015192506040850151915060608501519050600083905060008390506000836001900490506102658b828c85876102af565b151561027057600080fd5b60019650505050505050949350505050565b60006001600083815260200190815260200160002060020160009054906101000a900460ff169050919050565b60008086868686604051602001808573ffffffffffffffffffffffffffffffffffffffff1673ffffffffffffffffffffffffffffffffffffffff166c010000000000000000000000000281526014018473ffffffffffffffffffffffffffffffffffffffff1673ffffffffffffffffffffffffffffffffffffffff166c01000000000000000000000000028152601401838152602001828152602001945050505050604051602081830303815290604052805190602001209050828114151561037757600080fd5b600015156001600085815260200190815260200160002060020160009054906101000a900460ff1615151415156103ad57600080fd5b6060604051908101604052808481526020018681526020016001151581525060016000858152602001908152602001600020600082015181600001556020820151816001015560408201518160020160006101000a81548160ff0219169083151502179055509050506000809054906101000a900473ffffffffffffffffffffffffffffffffffffffff1673ffffffffffffffffffffffffffffffffffffffff166323b872dd8888886040518463ffffffff167c0100000000000000000000000000000000000000000000000000000000028152600401808473ffffffffffffffffffffffffffffffffffffffff1673ffffffffffffffffffffffffffffffffffffffff1681526020018373ffffffffffffffffffffffffffffffffffffffff1673ffffffffffffffffffffffffffffffffffffffff1681526020018281526020019350505050602060405180830381600087803b15801561050e57600080fd5b505af1158015610522573d6000803e3d6000fd5b505050506040513d602081101561053857600080fd5b81019080805190602001909291905050505060019150509594505050505056fea165627a7a72305820f72356a9753c891902745fdb13ae49c0dec961be728d6071437f7f35326cacc40029",
  "source": "pragma solidity ^0.5.0;\n\n\n\n/**------------------------------------\n\nA simple purchase order management smart contract.  This allows 0xBTC users to transfer tokens to another recipient, but do it in such a way that an order number and deterministic order hash are permanently saved on the blockchain for a simple 'proof of purchase' receipt of the transaction.\n\n\n------------------------------------*/\n\n\n\ncontract ERC20Interface {\n    function totalSupply() public view returns (uint);\n    function balanceOf(address tokenOwner) public view returns (uint balance);\n    function allowance(address tokenOwner, address spender) public view returns (uint remaining);\n    function transfer(address to, uint tokens) public returns (bool success);\n    function approve(address spender, uint tokens) public returns (bool success);\n    function transferFrom(address from, address to, uint tokens) public returns (bool success);\n\n    event Transfer(address indexed from, address indexed to, uint tokens);\n    event Approval(address indexed tokenOwner, address indexed spender, uint tokens);\n}\n\n\n\ncontract ApproveAndCallFallBack {\n    function receiveApproval(address from, uint256 tokens, address token, bytes memory data) public;\n}\n\n\ncontract PurchaseOrderManager{\n\n   address masterTokenAddress;\n\n\n  mapping (bytes32 => PurchaseOrder) orders;\n\n   struct PurchaseOrder {\n      bytes32 orderHash;\n      uint amountRaw;\n      bool orderFulfilled;\n   }\n\n    constructor( ) public  {\n        masterTokenAddress = 0xB6eD7644C69416d67B522e20bC294A9a9B405B31;\n    }\n\n    /**\n    * Do not allow ETH to enter\n    */\n     function() external payable\n     {\n         revert();\n     }\n\n\n     function getPurchaseOrderStatus(bytes32 orderHash) public view returns (bool success){\n        return orders[orderHash].orderFulfilled;\n     }\n\n\n     function _purchaseOrder(address from, address to, uint tokens, uint orderNonce, bytes32 orderHash ) internal returns (bool success) {\n\n\n          bytes32 predictedOrderHash = keccak256(abi.encodePacked( from, to, tokens, orderNonce ));\n          require(predictedOrderHash == orderHash);\n\n          require(orders[orderHash].orderFulfilled == false);\n\n          //save the order in history\n          orders[orderHash] = PurchaseOrder(orderHash, tokens, true);\n\n          //send the tokens\n          ERC20Interface(masterTokenAddress).transferFrom(from,to,tokens);\n\n\n          return true;\n      }\n\n       /*\n         Receive approval from ApproveAndCall() to claim a nametag token.\n\n       */\n       function receiveApproval(address from, uint256 tokens, address token, bytes memory data) public returns (bool success) {\n\n        require(token == masterTokenAddress);\n\n         bytes32 borderHash;\n         uint256 borderNonce;\n         bytes32 brecipientAddress;\n\n\n         // Divide the data into variables\n            assembly {\n              borderHash := mload(add(data, 32))\n              borderNonce := mload(add(data, 64))\n              brecipientAddress := mload(add(data, 96))\n            }\n\n\n          bytes32 orderHash = bytes32(borderHash);\n          uint256 orderNonce = uint256(borderNonce);\n          address recipientAddress = address(uint160(uint256(brecipientAddress)));\n\n\n          require(_purchaseOrder( from, recipientAddress, tokens, orderNonce, orderHash     ));\n\n          return true;\n\n       }\n\n\n\n}\n",
  "sourcePath": "/home/lubuntu/dev/0xlavatoken/contracts/purchaseOrderManager.sol",
  "compiler": {
    "name": "solc",
    "version": "0.5.0+commit.1d4f565a.Emscripten.clang"
  },
  "schemaVersion": "3.0.2",
  "updatedAt": "2019-05-14T20:23:59.641Z",
  "devdoc": {
    "methods": {}
  },
  "userdoc": {
    "methods": {}
  }
}